{
  "contractName": "BuildCollective",
  "abi": [
    {
      "anonymous": false,
      "inputs": [
        {
          "indexed": true,
          "internalType": "address",
          "name": "userAddress",
          "type": "address"
        },
        {
          "components": [
            {
              "internalType": "string",
              "name": "username",
              "type": "string"
            },
            {
              "internalType": "uint256",
              "name": "balance",
              "type": "uint256"
            },
            {
              "internalType": "bool",
              "name": "registered",
              "type": "bool"
            }
          ],
          "indexed": true,
          "internalType": "struct BuildCollective.User",
          "name": "user",
          "type": "tuple"
        }
      ],
      "name": "UserSignedUp",
      "type": "event"
    },
    {
      "constant": true,
      "inputs": [],
      "name": "owner",
      "outputs": [
        {
          "internalType": "address",
          "name": "",
          "type": "address"
        }
      ],
      "payable": false,
      "stateMutability": "view",
      "type": "function"
    },
    {
      "constant": true,
      "inputs": [
        {
          "internalType": "address",
          "name": "userAddress",
          "type": "address"
        }
      ],
      "name": "user",
      "outputs": [
        {
          "components": [
            {
              "internalType": "string",
              "name": "username",
              "type": "string"
            },
            {
              "internalType": "uint256",
              "name": "balance",
              "type": "uint256"
            },
            {
              "internalType": "bool",
              "name": "registered",
              "type": "bool"
            }
          ],
          "internalType": "struct BuildCollective.User",
          "name": "",
          "type": "tuple"
        }
      ],
      "payable": false,
      "stateMutability": "view",
      "type": "function"
    },
    {
      "constant": false,
      "inputs": [
        {
          "internalType": "string",
          "name": "username",
          "type": "string"
        }
      ],
      "name": "signUp",
      "outputs": [
        {
          "components": [
            {
              "internalType": "string",
              "name": "username",
              "type": "string"
            },
            {
              "internalType": "uint256",
              "name": "balance",
              "type": "uint256"
            },
            {
              "internalType": "bool",
              "name": "registered",
              "type": "bool"
            }
          ],
          "internalType": "struct BuildCollective.User",
          "name": "",
          "type": "tuple"
        }
      ],
      "payable": false,
      "stateMutability": "nonpayable",
      "type": "function"
    },
    {
      "constant": false,
      "inputs": [
        {
          "internalType": "uint256",
          "name": "amount",
          "type": "uint256"
        }
      ],
      "name": "addBalance",
      "outputs": [
        {
          "internalType": "bool",
          "name": "",
          "type": "bool"
        }
      ],
      "payable": false,
      "stateMutability": "nonpayable",
      "type": "function"
    }
  ],
  "bytecode": "0x6080604052336000806101000a81548173ffffffffffffffffffffffffffffffffffffffff021916908373ffffffffffffffffffffffffffffffffffffffff16021790555034801561005057600080fd5b50610aa5806100606000396000f3fe608060405234801561001057600080fd5b506004361061004c5760003560e01c806381e7e20e146100515780638da5cb5b14610081578063adcfb4fc1461009f578063d91921ed146100cf575b600080fd5b61006b60048036036100669190810190610598565b6100ff565b604051610078919061088a565b60405180910390f35b61008961021f565b6040516100969190610854565b60405180910390f35b6100b960048036036100b491908101906105c1565b610244565b6040516100c6919061088a565b60405180910390f35b6100e960048036036100e49190810190610602565b61039e565b6040516100f6919061086f565b60405180910390f35b610107610452565b600160008373ffffffffffffffffffffffffffffffffffffffff1673ffffffffffffffffffffffffffffffffffffffff168152602001908152602001600020604051806060016040529081600082018054600181600116156101000203166002900480601f0160208091040260200160405190810160405280929190818152602001828054600181600116156101000203166002900480156101ea5780601f106101bf576101008083540402835291602001916101ea565b820191906000526020600020905b8154815290600101906020018083116101cd57829003601f168201915b50505050508152602001600182015481526020016002820160009054906101000a900460ff1615151515815250509050919050565b6000809054906101000a900473ffffffffffffffffffffffffffffffffffffffff1681565b61024c610452565b600082511161025a57600080fd5b60405180606001604052808381526020016000815260200160011515815250600160003373ffffffffffffffffffffffffffffffffffffffff1673ffffffffffffffffffffffffffffffffffffffff16815260200190815260200160002060008201518160000190805190602001906102d4929190610475565b506020820151816001015560408201518160020160006101000a81548160ff021916908315150217905550905050600160003373ffffffffffffffffffffffffffffffffffffffff1673ffffffffffffffffffffffffffffffffffffffff16815260200190815260200160002060405161034e919061083d565b60405180910390203373ffffffffffffffffffffffffffffffffffffffff167fc24de5261f8eff14607134de76bea692f6b10ab7b8b21d627fa4cd6347365b7460405160405180910390a3919050565b6000600160003373ffffffffffffffffffffffffffffffffffffffff1673ffffffffffffffffffffffffffffffffffffffff16815260200190815260200160002060020160009054906101000a900460ff166103f957600080fd5b81600160003373ffffffffffffffffffffffffffffffffffffffff1673ffffffffffffffffffffffffffffffffffffffff1681526020019081526020016000206001016000828254019250508190555060019050919050565b604051806060016040528060608152602001600081526020016000151581525090565b828054600181600116156101000203166002900490600052602060002090601f016020900481019282601f106104b657805160ff19168380011785556104e4565b828001600101855582156104e4579182015b828111156104e35782518255916020019190600101906104c8565b5b5090506104f191906104f5565b5090565b61051791905b808211156105135760008160009055506001016104fb565b5090565b90565b60008135905061052981610a34565b92915050565b600082601f83011261054057600080fd5b813561055361054e826108d9565b6108ac565b9150808252602083016020830185838301111561056f57600080fd5b61057a8382846109a0565b50505092915050565b60008135905061059281610a4b565b92915050565b6000602082840312156105aa57600080fd5b60006105b88482850161051a565b91505092915050565b6000602082840312156105d357600080fd5b600082013567ffffffffffffffff8111156105ed57600080fd5b6105f98482850161052f565b91505092915050565b60006020828403121561061457600080fd5b600061062284828501610583565b91505092915050565b6000610637838361069c565b60208301905092915050565b600061064f83836106e4565b905092915050565b6000610663838361082e565b60208301905092915050565b61067881610958565b82525050565b6106878161096a565b82525050565b6106968161096a565b82525050565b6106a58161096a565b82525050565b60006106b68261091a565b6106c08185610925565b93506106d08185602086016109af565b6106d981610a16565b840191505092915050565b60008154600181166000811461070157600181146107275761076b565b607f60028304166107128187610936565b955060ff19831686526020860193505061076b565b600282046107358187610936565b955061074085610905565b60005b8281101561076257815481890152600182019150602081019050610743565b80880195505050505b505092915050565b6000606083016000830151848203600086015261079082826106ab565b91505060208301516107a5602086018261081f565b5060408301516107b8604086018261067e565b508091505092915050565b600080830160008084016107d78682610643565b955050600184015490506107ea816109fc565b6107f48682610657565b95505060028401549050610807816109e2565b610811868261062b565b955050849250505092915050565b61082881610996565b82525050565b61083781610996565b82525050565b600061084982846107c3565b915081905092915050565b6000602082019050610869600083018461066f565b92915050565b6000602082019050610884600083018461068d565b92915050565b600060208201905081810360008301526108a48184610773565b905092915050565b6000604051905081810181811067ffffffffffffffff821117156108cf57600080fd5b8060405250919050565b600067ffffffffffffffff8211156108f057600080fd5b601f19601f8301169050602081019050919050565b60008190508160005260206000209050919050565b600081519050919050565b600082825260208201905092915050565b600081905092915050565b600060ff82169050919050565b6000819050919050565b600061096382610976565b9050919050565b60008115159050919050565b600073ffffffffffffffffffffffffffffffffffffffff82169050919050565b6000819050919050565b82818337600083830152505050565b60005b838110156109cd5780820151818401526020810190506109b2565b838111156109dc576000848401525b50505050565b60006109f56109f083610a27565b610941565b9050919050565b6000610a0f610a0a83610a27565b61094e565b9050919050565b6000601f19601f8301169050919050565b60008160001c9050919050565b610a3d81610958565b8114610a4857600080fd5b50565b610a5481610996565b8114610a5f57600080fd5b5056fea365627a7a72315820563c8ba603d548e2ab352abdc7a3639e1076918373ace65d58bd989dea3610ad6c6578706572696d656e74616cf564736f6c63430005100040",
  "source": "pragma solidity >=0.4.22 <0.9.0;\npragma experimental ABIEncoderV2;\n\nimport \"./Ownable.sol\";\n\ncontract BuildCollective is Ownable {\n  struct User {\n    string username;\n    uint256 balance;\n    bool registered;\n  }\n\n  mapping(address => User) private users;\n\n  event UserSignedUp(address indexed userAddress, User indexed user);\n\n  function user(address userAddress) public view returns (User memory) {\n    return users[userAddress];\n  }\n\n  function signUp(string memory username) public returns (User memory) {\n    require(bytes(username).length > 0);\n    users[msg.sender] = User(username, 0, true);\n    emit UserSignedUp(msg.sender, users[msg.sender]);\n  }\n\n  function addBalance(uint256 amount) public returns (bool) {\n    require(users[msg.sender].registered);\n    users[msg.sender].balance += amount;\n    return true;\n  }\n}\n",
  "sourcePath": "/Users/walidsadat/build-collective/contracts/BuildCollective.sol",
  "compiler": {
    "name": "solc",
    "version": "0.5.16+commit.9c3226ce.Emscripten.clang"
  },
  "schemaVersion": "3.4.3",
  "updatedAt": "2021-11-18T18:43:58.855Z",
  "networkType": "ethereum",
  "devdoc": {
    "methods": {}
  },
  "userdoc": {
    "methods": {}
  }
}